{
  "contractName": "Dex",
  "abi": [
    {
      "inputs": [],
      "stateMutability": "nonpayable",
      "type": "constructor"
    },
    {
      "anonymous": false,
      "inputs": [
        {
          "indexed": false,
          "internalType": "address",
          "name": "oldAdmin",
          "type": "address"
        },
        {
          "indexed": false,
          "internalType": "address",
          "name": "newAdmin",
          "type": "address"
        },
        {
          "indexed": false,
          "internalType": "uint256",
          "name": "date",
          "type": "uint256"
        }
      ],
      "name": "AdminChanged",
      "type": "event"
    },
    {
      "anonymous": false,
      "inputs": [
        {
          "indexed": false,
          "internalType": "uint256",
          "name": "tradeID",
          "type": "uint256"
        },
        {
          "indexed": false,
          "internalType": "uint256",
          "name": "orderID",
          "type": "uint256"
        },
        {
          "indexed": true,
          "internalType": "bytes32",
          "name": "ticker",
          "type": "bytes32"
        },
        {
          "indexed": true,
          "internalType": "address",
          "name": "trader1",
          "type": "address"
        },
        {
          "indexed": true,
          "internalType": "address",
          "name": "trader2",
          "type": "address"
        },
        {
          "indexed": false,
          "internalType": "uint256",
          "name": "amount",
          "type": "uint256"
        },
        {
          "indexed": false,
          "internalType": "uint256",
          "name": "price",
          "type": "uint256"
        },
        {
          "indexed": false,
          "internalType": "uint256",
          "name": "date",
          "type": "uint256"
        }
      ],
      "name": "NewTrade",
      "type": "event"
    },
    {
      "inputs": [],
      "name": "admin",
      "outputs": [
        {
          "internalType": "address",
          "name": "",
          "type": "address"
        }
      ],
      "stateMutability": "view",
      "type": "function"
    },
    {
      "inputs": [],
      "name": "nextOrderID",
      "outputs": [
        {
          "internalType": "uint256",
          "name": "",
          "type": "uint256"
        }
      ],
      "stateMutability": "view",
      "type": "function"
    },
    {
      "inputs": [],
      "name": "nextTradeID",
      "outputs": [
        {
          "internalType": "uint256",
          "name": "",
          "type": "uint256"
        }
      ],
      "stateMutability": "view",
      "type": "function"
    },
    {
      "inputs": [
        {
          "internalType": "bytes32",
          "name": "",
          "type": "bytes32"
        },
        {
          "internalType": "uint256",
          "name": "",
          "type": "uint256"
        },
        {
          "internalType": "uint256",
          "name": "",
          "type": "uint256"
        }
      ],
      "name": "orderBook",
      "outputs": [
        {
          "internalType": "uint256",
          "name": "id",
          "type": "uint256"
        },
        {
          "internalType": "address",
          "name": "trader",
          "type": "address"
        },
        {
          "internalType": "enum Dex.Side",
          "name": "side",
          "type": "uint8"
        },
        {
          "internalType": "bytes32",
          "name": "ticker",
          "type": "bytes32"
        },
        {
          "internalType": "uint256",
          "name": "amount",
          "type": "uint256"
        },
        {
          "internalType": "uint256",
          "name": "price",
          "type": "uint256"
        },
        {
          "internalType": "uint256",
          "name": "filled",
          "type": "uint256"
        },
        {
          "internalType": "uint256",
          "name": "date",
          "type": "uint256"
        }
      ],
      "stateMutability": "view",
      "type": "function"
    },
    {
      "inputs": [
        {
          "internalType": "uint256",
          "name": "",
          "type": "uint256"
        }
      ],
      "name": "tokenList",
      "outputs": [
        {
          "internalType": "bytes32",
          "name": "",
          "type": "bytes32"
        }
      ],
      "stateMutability": "view",
      "type": "function"
    },
    {
      "inputs": [
        {
          "internalType": "bytes32",
          "name": "",
          "type": "bytes32"
        }
      ],
      "name": "tokens",
      "outputs": [
        {
          "internalType": "bytes32",
          "name": "ticker",
          "type": "bytes32"
        },
        {
          "internalType": "address",
          "name": "tokenAddress",
          "type": "address"
        }
      ],
      "stateMutability": "view",
      "type": "function"
    },
    {
      "inputs": [
        {
          "internalType": "address",
          "name": "",
          "type": "address"
        },
        {
          "internalType": "bytes32",
          "name": "",
          "type": "bytes32"
        }
      ],
      "name": "traderBalances",
      "outputs": [
        {
          "internalType": "uint256",
          "name": "",
          "type": "uint256"
        }
      ],
      "stateMutability": "view",
      "type": "function"
    },
    {
      "inputs": [
        {
          "internalType": "bytes32",
          "name": "ticker",
          "type": "bytes32"
        },
        {
          "internalType": "address",
          "name": "tokenAddress",
          "type": "address"
        }
      ],
      "name": "addToken",
      "outputs": [],
      "stateMutability": "nonpayable",
      "type": "function"
    },
    {
      "inputs": [
        {
          "internalType": "uint256",
          "name": "amount",
          "type": "uint256"
        },
        {
          "internalType": "bytes32",
          "name": "ticker",
          "type": "bytes32"
        }
      ],
      "name": "deposit",
      "outputs": [],
      "stateMutability": "nonpayable",
      "type": "function"
    },
    {
      "inputs": [
        {
          "internalType": "uint256",
          "name": "amount",
          "type": "uint256"
        },
        {
          "internalType": "bytes32",
          "name": "ticker",
          "type": "bytes32"
        }
      ],
      "name": "withdraw",
      "outputs": [],
      "stateMutability": "nonpayable",
      "type": "function"
    },
    {
      "inputs": [
        {
          "internalType": "bytes32",
          "name": "ticker",
          "type": "bytes32"
        },
        {
          "internalType": "uint256",
          "name": "price",
          "type": "uint256"
        },
        {
          "internalType": "uint256",
          "name": "amount",
          "type": "uint256"
        },
        {
          "internalType": "enum Dex.Side",
          "name": "side",
          "type": "uint8"
        }
      ],
      "name": "createLimitOrder",
      "outputs": [],
      "stateMutability": "nonpayable",
      "type": "function"
    },
    {
      "inputs": [
        {
          "internalType": "bytes32",
          "name": "ticker",
          "type": "bytes32"
        },
        {
          "internalType": "uint256",
          "name": "amount",
          "type": "uint256"
        },
        {
          "internalType": "enum Dex.Side",
          "name": "side",
          "type": "uint8"
        }
      ],
      "name": "createMarketOrder",
      "outputs": [],
      "stateMutability": "nonpayable",
      "type": "function"
    },
    {
      "inputs": [
        {
          "internalType": "bytes32",
          "name": "ticker",
          "type": "bytes32"
        },
        {
          "internalType": "enum Dex.Side",
          "name": "side",
          "type": "uint8"
        }
      ],
      "name": "getOrders",
      "outputs": [
        {
          "components": [
            {
              "internalType": "uint256",
              "name": "id",
              "type": "uint256"
            },
            {
              "internalType": "address",
              "name": "trader",
              "type": "address"
            },
            {
              "internalType": "enum Dex.Side",
              "name": "side",
              "type": "uint8"
            },
            {
              "internalType": "bytes32",
              "name": "ticker",
              "type": "bytes32"
            },
            {
              "internalType": "uint256",
              "name": "amount",
              "type": "uint256"
            },
            {
              "internalType": "uint256",
              "name": "price",
              "type": "uint256"
            },
            {
              "internalType": "uint256",
              "name": "filled",
              "type": "uint256"
            },
            {
              "internalType": "uint256",
              "name": "date",
              "type": "uint256"
            }
          ],
          "internalType": "struct Dex.Order[]",
          "name": "",
          "type": "tuple[]"
        }
      ],
      "stateMutability": "view",
      "type": "function"
    },
    {
      "inputs": [],
      "name": "getTokens",
      "outputs": [
        {
          "components": [
            {
              "internalType": "bytes32",
              "name": "ticker",
              "type": "bytes32"
            },
            {
              "internalType": "address",
              "name": "tokenAddress",
              "type": "address"
            }
          ],
          "internalType": "struct Dex.Token[]",
          "name": "",
          "type": "tuple[]"
        }
      ],
      "stateMutability": "view",
      "type": "function"
    },
    {
      "inputs": [
        {
          "internalType": "address",
          "name": "newAdmin",
          "type": "address"
        }
      ],
      "name": "changeAdmin",
      "outputs": [],
      "stateMutability": "nonpayable",
      "type": "function"
    }
  ],
  "bytecode": "0x608060405234801561001057600080fd5b5033600160006101000a81548173ffffffffffffffffffffffffffffffffffffffff021916908373ffffffffffffffffffffffffffffffffffffffff1602179055506133d4806100616000396000f3fe608060405234801561001057600080fd5b50600436106100f55760003560e01c80639776aacf11610097578063c9630cb011610066578063c9630cb01461029e578063d9c0c950146102ba578063f47a0acc146102d6578063f851a440146102f4576100f5565b80639776aacf146102185780639ead722214610234578063a8d2021a14610264578063aa6ca80814610280576100f5565b80637f2c6246116100d35780637f2c62461461019157806388a6d702146101ad5780638f283970146101cb578063904194a3146101e7576100f5565b80630bb431b6146100fa57806346e9658b1461013157806372ce957e14610161575b600080fd5b610114600480360381019061010f919061259f565b610312565b6040516101289897969594939291906126c8565b60405180910390f35b61014b6004803603810190610146919061276b565b6103b1565b6040516101589190612939565b60405180910390f35b61017b60048036038101906101769190612987565b610515565b60405161018891906129c7565b60405180910390f35b6101ab60048036038101906101a691906129e2565b61053a565b005b6101b5610717565b6040516101c291906129c7565b60405180910390f35b6101e560048036038101906101e09190612a35565b61071d565b005b61020160048036038101906101fc9190612a62565b610854565b60405161020f929190612a8f565b60405180910390f35b610232600480360381019061022d9190612ab8565b610898565b005b61024e60048036038101906102499190612af8565b610a6e565b60405161025b9190612b25565b60405180910390f35b61027e60048036038101906102799190612b40565b610a92565b005b610288610bdb565b6040516102959190612c5e565b60405180910390f35b6102b860048036038101906102b39190612b40565b610d36565b005b6102d460048036038101906102cf9190612c80565b610dec565b005b6102de61108e565b6040516102eb91906129c7565b60405180910390f35b6102fc611094565b6040516103099190612ce7565b60405180910390f35b6005602052826000526040600020602052816000526040600020818154811061033a57600080fd5b906000526020600020906007020160009250925050508060000154908060010160009054906101000a900473ffffffffffffffffffffffffffffffffffffffff16908060010160149054906101000a900460ff16908060020154908060030154908060040154908060050154908060060154905088565b60606005600084815260200190815260200160002060008360018111156103db576103da612642565b5b8152602001908152602001600020805480602002602001604051908101604052809291908181526020016000905b82821015610509578382906000526020600020906007020160405180610100016040529081600082015481526020016001820160009054906101000a900473ffffffffffffffffffffffffffffffffffffffff1673ffffffffffffffffffffffffffffffffffffffff1673ffffffffffffffffffffffffffffffffffffffff1681526020016001820160149054906101000a900460ff1660018111156104b2576104b1612642565b5b60018111156104c4576104c3612642565b5b81526020016002820154815260200160038201548152602001600482015481526020016005820154815260200160068201548152505081526020019060010190610409565b50505050905092915050565b6004602052816000526040600020602052806000526040600020600091509150505481565b82600073ffffffffffffffffffffffffffffffffffffffff166003600083815260200190815260200160002060010160009054906101000a900473ffffffffffffffffffffffffffffffffffffffff1673ffffffffffffffffffffffffffffffffffffffff1614156105e1576040517f08c379a00000000000000000000000000000000000000000000000000000000081526004016105d890612d5f565b60405180910390fd5b837f4441490000000000000000000000000000000000000000000000000000000000811415610645576040517f08c379a000000000000000000000000000000000000000000000000000000000815260040161063c90612dcb565b60405180910390fd5b60018081111561065857610657612642565b5b83600181111561066b5761066a612642565b5b14156107055783600460003373ffffffffffffffffffffffffffffffffffffffff1673ffffffffffffffffffffffffffffffffffffffff1681526020019081526020016000206000878152602001908152602001600020541015610704576040517f08c379a00000000000000000000000000000000000000000000000000000000081526004016106fb90612e37565b60405180910390fd5b5b6107108585856110ba565b5050505050565b60005481565b600160009054906101000a900473ffffffffffffffffffffffffffffffffffffffff1673ffffffffffffffffffffffffffffffffffffffff163373ffffffffffffffffffffffffffffffffffffffff16146107ad576040517f08c379a00000000000000000000000000000000000000000000000000000000081526004016107a490612ea3565b60405180910390fd5b6000600160009054906101000a900473ffffffffffffffffffffffffffffffffffffffff16905081600160006101000a81548173ffffffffffffffffffffffffffffffffffffffff021916908373ffffffffffffffffffffffffffffffffffffffff1602179055507f766be043f7e09e95a2812f6c40555ea1bbaf526780a5412e1db72a3489ad8e7381834260405161084893929190612ec3565b60405180910390a15050565b60036020528060005260406000206000915090508060000154908060010160009054906101000a900473ffffffffffffffffffffffffffffffffffffffff16905082565b600160009054906101000a900473ffffffffffffffffffffffffffffffffffffffff1673ffffffffffffffffffffffffffffffffffffffff163373ffffffffffffffffffffffffffffffffffffffff1614610928576040517f08c379a000000000000000000000000000000000000000000000000000000000815260040161091f90612ea3565b60405180910390fd5b8160005b6002805490508110156109ad576002818154811061094d5761094c612efa565b5b906000526020600020015482141561099a576040517f08c379a000000000000000000000000000000000000000000000000000000000815260040161099190612f75565b60405180910390fd5b80806109a590612fc4565b91505061092c565b5060405180604001604052808481526020018373ffffffffffffffffffffffffffffffffffffffff16815250600360008581526020019081526020016000206000820151816000015560208201518160010160006101000a81548173ffffffffffffffffffffffffffffffffffffffff021916908373ffffffffffffffffffffffffffffffffffffffff1602179055509050506002839080600181540180825580915050600190039060005260206000200160009091909190915055505050565b60028181548110610a7e57600080fd5b906000526020600020016000915090505481565b80600073ffffffffffffffffffffffffffffffffffffffff166003600083815260200190815260200160002060010160009054906101000a900473ffffffffffffffffffffffffffffffffffffffff1673ffffffffffffffffffffffffffffffffffffffff161415610b39576040517f08c379a0000000000000000000000000000000000000000000000000000000008152600401610b3090612d5f565b60405180910390fd5b82600460003373ffffffffffffffffffffffffffffffffffffffff1673ffffffffffffffffffffffffffffffffffffffff1681526020019081526020016000206000848152602001908152602001600020541015610bcc576040517f08c379a0000000000000000000000000000000000000000000000000000000008152600401610bc390613059565b60405180910390fd5b610bd68383611c5b565b505050565b6060600060028054905067ffffffffffffffff811115610bfe57610bfd613079565b5b604051908082528060200260200182016040528015610c3757816020015b610c246124fb565b815260200190600190039081610c1c5790505b50905060005b600280549050811015610d2e5760405180604001604052806003600060028581548110610c6d57610c6c612efa565b5b906000526020600020015481526020019081526020016000206000015481526020016003600060028581548110610ca757610ca6612efa565b5b9060005260206000200154815260200190815260200160002060010160009054906101000a900473ffffffffffffffffffffffffffffffffffffffff1673ffffffffffffffffffffffffffffffffffffffff16815250828281518110610d1057610d0f612efa565b5b60200260200101819052508080610d2690612fc4565b915050610c3d565b508091505090565b80600073ffffffffffffffffffffffffffffffffffffffff166003600083815260200190815260200160002060010160009054906101000a900473ffffffffffffffffffffffffffffffffffffffff1673ffffffffffffffffffffffffffffffffffffffff161415610ddd576040517f08c379a0000000000000000000000000000000000000000000000000000000008152600401610dd490612d5f565b60405180910390fd5b610de78383611dbf565b505050565b83600073ffffffffffffffffffffffffffffffffffffffff166003600083815260200190815260200160002060010160009054906101000a900473ffffffffffffffffffffffffffffffffffffffff1673ffffffffffffffffffffffffffffffffffffffff161415610e93576040517f08c379a0000000000000000000000000000000000000000000000000000000008152600401610e8a90612d5f565b60405180910390fd5b847f4441490000000000000000000000000000000000000000000000000000000000811415610ef7576040517f08c379a0000000000000000000000000000000000000000000000000000000008152600401610eee90612dcb565b60405180910390fd5b600180811115610f0a57610f09612642565b5b836001811115610f1d57610f1c612642565b5b1415610fbb5783600460003373ffffffffffffffffffffffffffffffffffffffff1673ffffffffffffffffffffffffffffffffffffffff1681526020019081526020016000206000888152602001908152602001600020541015610fb6576040517f08c379a0000000000000000000000000000000000000000000000000000000008152600401610fad90612e37565b60405180910390fd5b61107a565b8484610fc791906130a8565b600460003373ffffffffffffffffffffffffffffffffffffffff1673ffffffffffffffffffffffffffffffffffffffff16815260200190815260200160002060007f44414900000000000000000000000000000000000000000000000000000000008152602001908152602001600020541015611079576040517f08c379a00000000000000000000000000000000000000000000000000000000081526004016110709061314e565b60405180910390fd5b5b61108686868686611ee1565b505050505050565b60065481565b600160009054906101000a900473ffffffffffffffffffffffffffffffffffffffff1681565b60006005600085815260200190815260200160002060008060018111156110e4576110e3612642565b5b8460018111156110f7576110f6612642565b5b14611103576000611106565b60015b600181111561111857611117612642565b5b815260200190815260200160002090506000808490505b8280549050821080156111425750600081115b156119e457600083838154811061115c5761115b612efa565b5b90600052602060002090600702016005015484848154811061118157611180612efa565b5b90600052602060002090600702016003015461119d919061316e565b905060008183116111ae57826111b0565b815b905080836111be919061316e565b9250808585815481106111d4576111d3612efa565b5b906000526020600020906007020160050160008282546111f491906131a2565b925050819055503373ffffffffffffffffffffffffffffffffffffffff1685858154811061122557611224612efa565b5b906000526020600020906007020160010160009054906101000a900473ffffffffffffffffffffffffffffffffffffffff1673ffffffffffffffffffffffffffffffffffffffff16897fdb0c486e680ba8026643e6a85f8d157b5e7bcd4b32b54d564542570a9eb204166000548989815481106112a5576112a4612efa565b5b906000526020600020906007020160000154868b8b815481106112cb576112ca612efa565b5b906000526020600020906007020160040154426040516112ef9594939291906131f8565b60405180910390a460018081111561130a57611309612642565b5b86600181111561131d5761131c612642565b5b14156115e65780600460003373ffffffffffffffffffffffffffffffffffffffff1673ffffffffffffffffffffffffffffffffffffffff16815260200190815260200160002060008a81526020019081526020016000206000828254611383919061316e565b9250508190555084848154811061139d5761139c612efa565b5b906000526020600020906007020160040154816113ba91906130a8565b600460003373ffffffffffffffffffffffffffffffffffffffff1673ffffffffffffffffffffffffffffffffffffffff16815260200190815260200160002060007f44414900000000000000000000000000000000000000000000000000000000008152602001908152602001600020600082825461143991906131a2565b92505081905550806004600087878154811061145857611457612efa565b5b906000526020600020906007020160010160009054906101000a900473ffffffffffffffffffffffffffffffffffffffff1673ffffffffffffffffffffffffffffffffffffffff1673ffffffffffffffffffffffffffffffffffffffff16815260200190815260200160002060008a815260200190815260200160002060008282546114e491906131a2565b925050819055508484815481106114fe576114fd612efa565b5b9060005260206000209060070201600401548161151b91906130a8565b6004600087878154811061153257611531612efa565b5b906000526020600020906007020160010160009054906101000a900473ffffffffffffffffffffffffffffffffffffffff1673ffffffffffffffffffffffffffffffffffffffff1673ffffffffffffffffffffffffffffffffffffffff16815260200190815260200160002060007f4441490000000000000000000000000000000000000000000000000000000000815260200190815260200160002060008282546115de919061316e565b925050819055505b600060018111156115fa576115f9612642565b5b86600181111561160d5761160c612642565b5b14156119b85784848154811061162657611625612efa565b5b9060005260206000209060070201600401548161164391906130a8565b600460003373ffffffffffffffffffffffffffffffffffffffff1673ffffffffffffffffffffffffffffffffffffffff16815260200190815260200160002060007f444149000000000000000000000000000000000000000000000000000000000081526020019081526020016000205410156116f5576040517f08c379a00000000000000000000000000000000000000000000000000000000081526004016116ec9061314e565b60405180910390fd5b80600460003373ffffffffffffffffffffffffffffffffffffffff1673ffffffffffffffffffffffffffffffffffffffff16815260200190815260200160002060008a8152602001908152602001600020600082825461175591906131a2565b9250508190555084848154811061176f5761176e612efa565b5b9060005260206000209060070201600401548161178c91906130a8565b600460003373ffffffffffffffffffffffffffffffffffffffff1673ffffffffffffffffffffffffffffffffffffffff16815260200190815260200160002060007f44414900000000000000000000000000000000000000000000000000000000008152602001908152602001600020600082825461180b919061316e565b92505081905550806004600087878154811061182a57611829612efa565b5b906000526020600020906007020160010160009054906101000a900473ffffffffffffffffffffffffffffffffffffffff1673ffffffffffffffffffffffffffffffffffffffff1673ffffffffffffffffffffffffffffffffffffffff16815260200190815260200160002060008a815260200190815260200160002060008282546118b6919061316e565b925050819055508484815481106118d0576118cf612efa565b5b906000526020600020906007020160040154816118ed91906130a8565b6004600087878154811061190457611903612efa565b5b906000526020600020906007020160010160009054906101000a900473ffffffffffffffffffffffffffffffffffffffff1673ffffffffffffffffffffffffffffffffffffffff1673ffffffffffffffffffffffffffffffffffffffff16815260200190815260200160002060007f4441490000000000000000000000000000000000000000000000000000000000815260200190815260200160002060008282546119b091906131a2565b925050819055505b6000808154809291906119ca90612fc4565b919050555083806119da90612fc4565b945050505061112f565b600091505b828054905082108015611a435750828281548110611a0a57611a09612efa565b5b906000526020600020906007020160030154838381548110611a2f57611a2e612efa565b5b906000526020600020906007020160050154145b15611c535760008290505b60018480549050611a5f919061316e565b811015611baa5783600182611a7491906131a2565b81548110611a8557611a84612efa565b5b9060005260206000209060070201848281548110611aa657611aa5612efa565b5b9060005260206000209060070201600082015481600001556001820160009054906101000a900473ffffffffffffffffffffffffffffffffffffffff168160010160006101000a81548173ffffffffffffffffffffffffffffffffffffffff021916908373ffffffffffffffffffffffffffffffffffffffff1602179055506001820160149054906101000a900460ff168160010160146101000a81548160ff02191690836001811115611b5d57611b5c612642565b5b021790555060028201548160020155600382015481600301556004820154816004015560058201548160050155600682015481600601559050508080611ba290612fc4565b915050611a4e565b5082805480611bbc57611bbb61324b565b5b60019003818190600052602060002090600702016000808201600090556001820160006101000a81549073ffffffffffffffffffffffffffffffffffffffff02191690556001820160146101000a81549060ff021916905560028201600090556003820160009055600482016000905560058201600090556006820160009055505090558180611c4b90612fc4565b9250506119e9565b505050505050565b81600460003373ffffffffffffffffffffffffffffffffffffffff1673ffffffffffffffffffffffffffffffffffffffff16815260200190815260200160002060008381526020019081526020016000206000828254611cbb919061316e565b9250508190555060006003600083815260200190815260200160002060010160009054906101000a900473ffffffffffffffffffffffffffffffffffffffff1673ffffffffffffffffffffffffffffffffffffffff1663a9059cbb33856040518363ffffffff1660e01b8152600401611d3592919061327a565b6020604051808303816000875af1158015611d54573d6000803e3d6000fd5b505050506040513d601f19601f82011682018060405250810190611d7891906132db565b905080611dba576040517f08c379a0000000000000000000000000000000000000000000000000000000008152600401611db190613354565b60405180910390fd5b505050565b6003600082815260200190815260200160002060010160009054906101000a900473ffffffffffffffffffffffffffffffffffffffff1673ffffffffffffffffffffffffffffffffffffffff166323b872dd3330856040518463ffffffff1660e01b8152600401611e3293929190612ec3565b6020604051808303816000875af1158015611e51573d6000803e3d6000fd5b505050506040513d601f19601f82011682018060405250810190611e7591906132db565b5081600460003373ffffffffffffffffffffffffffffffffffffffff1673ffffffffffffffffffffffffffffffffffffffff16815260200190815260200160002060008381526020019081526020016000206000828254611ed691906131a2565b925050819055505050565b6000600560008681526020019081526020016000206000836001811115611f0b57611f0a612642565b5b815260200190815260200160002090508060405180610100016040528060065481526020013373ffffffffffffffffffffffffffffffffffffffff168152602001846001811115611f5f57611f5e612642565b5b8152602001878152602001858152602001868152602001600081526020014281525090806001815401808255809150506001900390600052602060002090600702016000909190919091506000820151816000015560208201518160010160006101000a81548173ffffffffffffffffffffffffffffffffffffffff021916908373ffffffffffffffffffffffffffffffffffffffff16021790555060408201518160010160146101000a81548160ff0219169083600181111561202657612025612642565b5b0217905550606082015181600201556080820151816003015560a0820151816004015560c0820151816005015560e082015181600601555050600080828054905011612073576000612085565b60018280549050612084919061316e565b5b90505b60008111156124db57600060018111156120a5576120a4612642565b5b8360018111156120b8576120b7612642565b5b1480156121195750816001826120ce919061316e565b815481106120df576120de612efa565b5b90600052602060002090600702016004015482828154811061210457612103612efa565b5b90600052602060002090600702016004015411155b15612123576124db565b60018081111561213657612135612642565b5b83600181111561214957612148612642565b5b1480156121aa57508160018261215f919061316e565b815481106121705761216f612efa565b5b90600052602060002090600702016004015482828154811061219557612194612efa565b5b90600052602060002090600702016004015410155b156121b4576124db565b60008282815481106121c9576121c8612efa565b5b906000526020600020906007020160405180610100016040529081600082015481526020016001820160009054906101000a900473ffffffffffffffffffffffffffffffffffffffff1673ffffffffffffffffffffffffffffffffffffffff1673ffffffffffffffffffffffffffffffffffffffff1681526020016001820160149054906101000a900460ff16600181111561226857612267612642565b5b600181111561227a57612279612642565b5b8152602001600282015481526020016003820154815260200160048201548152602001600582015481526020016006820154815250509050826001836122c0919061316e565b815481106122d1576122d0612efa565b5b90600052602060002090600702018383815481106122f2576122f1612efa565b5b9060005260206000209060070201600082015481600001556001820160009054906101000a900473ffffffffffffffffffffffffffffffffffffffff168160010160006101000a81548173ffffffffffffffffffffffffffffffffffffffff021916908373ffffffffffffffffffffffffffffffffffffffff1602179055506001820160149054906101000a900460ff168160010160146101000a81548160ff021916908360018111156123a9576123a8612642565b5b0217905550600282015481600201556003820154816003015560048201548160040155600582015481600501556006820154816006015590505080836001846123f2919061316e565b8154811061240357612402612efa565b5b90600052602060002090600702016000820151816000015560208201518160010160006101000a81548173ffffffffffffffffffffffffffffffffffffffff021916908373ffffffffffffffffffffffffffffffffffffffff16021790555060408201518160010160146101000a81548160ff0219169083600181111561248d5761248c612642565b5b0217905550606082015181600201556080820151816003015560a0820151816004015560c0820151816005015560e0820151816006015590505081806124d290613374565b92505050612088565b600660008154809291906124ee90612fc4565b9190505550505050505050565b604051806040016040528060008019168152602001600073ffffffffffffffffffffffffffffffffffffffff1681525090565b600080fd5b6000819050919050565b61254681612533565b811461255157600080fd5b50565b6000813590506125638161253d565b92915050565b6000819050919050565b61257c81612569565b811461258757600080fd5b50565b60008135905061259981612573565b92915050565b6000806000606084860312156125b8576125b761252e565b5b60006125c686828701612554565b93505060206125d78682870161258a565b92505060406125e88682870161258a565b9150509250925092565b6125fb81612569565b82525050565b600073ffffffffffffffffffffffffffffffffffffffff82169050919050565b600061262c82612601565b9050919050565b61263c81612621565b82525050565b7f4e487b7100000000000000000000000000000000000000000000000000000000600052602160045260246000fd5b6002811061268257612681612642565b5b50565b600081905061269382612671565b919050565b60006126a382612685565b9050919050565b6126b381612698565b82525050565b6126c281612533565b82525050565b6000610100820190506126de600083018b6125f2565b6126eb602083018a612633565b6126f860408301896126aa565b61270560608301886126b9565b61271260808301876125f2565b61271f60a08301866125f2565b61272c60c08301856125f2565b61273960e08301846125f2565b9998505050505050505050565b6002811061275357600080fd5b50565b60008135905061276581612746565b92915050565b600080604083850312156127825761278161252e565b5b600061279085828601612554565b92505060206127a185828601612756565b9150509250929050565b600081519050919050565b600082825260208201905092915050565b6000819050602082019050919050565b6127e081612569565b82525050565b6127ef81612621565b82525050565b6127fe81612698565b82525050565b61280d81612533565b82525050565b6101008201600082015161282a60008501826127d7565b50602082015161283d60208501826127e6565b50604082015161285060408501826127f5565b5060608201516128636060850182612804565b50608082015161287660808501826127d7565b5060a082015161288960a08501826127d7565b5060c082015161289c60c08501826127d7565b5060e08201516128af60e08501826127d7565b50505050565b60006128c18383612813565b6101008301905092915050565b6000602082019050919050565b60006128e6826127ab565b6128f081856127b6565b93506128fb836127c7565b8060005b8381101561292c57815161291388826128b5565b975061291e836128ce565b9250506001810190506128ff565b5085935050505092915050565b6000602082019050818103600083015261295381846128db565b905092915050565b61296481612621565b811461296f57600080fd5b50565b6000813590506129818161295b565b92915050565b6000806040838503121561299e5761299d61252e565b5b60006129ac85828601612972565b92505060206129bd85828601612554565b9150509250929050565b60006020820190506129dc60008301846125f2565b92915050565b6000806000606084860312156129fb576129fa61252e565b5b6000612a0986828701612554565b9350506020612a1a8682870161258a565b9250506040612a2b86828701612756565b9150509250925092565b600060208284031215612a4b57612a4a61252e565b5b6000612a5984828501612972565b91505092915050565b600060208284031215612a7857612a7761252e565b5b6000612a8684828501612554565b91505092915050565b6000604082019050612aa460008301856126b9565b612ab16020830184612633565b9392505050565b60008060408385031215612acf57612ace61252e565b5b6000612add85828601612554565b9250506020612aee85828601612972565b9150509250929050565b600060208284031215612b0e57612b0d61252e565b5b6000612b1c8482850161258a565b91505092915050565b6000602082019050612b3a60008301846126b9565b92915050565b60008060408385031215612b5757612b5661252e565b5b6000612b658582860161258a565b9250506020612b7685828601612554565b9150509250929050565b600081519050919050565b600082825260208201905092915050565b6000819050602082019050919050565b604082016000820151612bc26000850182612804565b506020820151612bd560208501826127e6565b50505050565b6000612be78383612bac565b60408301905092915050565b6000602082019050919050565b6000612c0b82612b80565b612c158185612b8b565b9350612c2083612b9c565b8060005b83811015612c51578151612c388882612bdb565b9750612c4383612bf3565b925050600181019050612c24565b5085935050505092915050565b60006020820190508181036000830152612c788184612c00565b905092915050565b60008060008060808587031215612c9a57612c9961252e565b5b6000612ca887828801612554565b9450506020612cb98782880161258a565b9350506040612cca8782880161258a565b9250506060612cdb87828801612756565b91505092959194509250565b6000602082019050612cfc6000830184612633565b92915050565b600082825260208201905092915050565b7f5468697320746f6b656e20646f65736e27742065786973740000000000000000600082015250565b6000612d49601883612d02565b9150612d5482612d13565b602082019050919050565b60006020820190508181036000830152612d7881612d3c565b9050919050565b7f444149206e6f74207472616461626c6500000000000000000000000000000000600082015250565b6000612db5601083612d02565b9150612dc082612d7f565b602082019050919050565b60006020820190508181036000830152612de481612da8565b9050919050565b7f496e73756666696369656e7420746f6b656e2062616c616e6365000000000000600082015250565b6000612e21601a83612d02565b9150612e2c82612deb565b602082019050919050565b60006020820190508181036000830152612e5081612e14565b9050919050565b7f6f6e6c792061646d696e20616c6c6f7765640000000000000000000000000000600082015250565b6000612e8d601283612d02565b9150612e9882612e57565b602082019050919050565b60006020820190508181036000830152612ebc81612e80565b9050919050565b6000606082019050612ed86000830186612633565b612ee56020830185612633565b612ef260408301846125f2565b949350505050565b7f4e487b7100000000000000000000000000000000000000000000000000000000600052603260045260246000fd5b7f546f6b656e20616c726561647920657869737473000000000000000000000000600082015250565b6000612f5f601483612d02565b9150612f6a82612f29565b602082019050919050565b60006020820190508181036000830152612f8e81612f52565b9050919050565b7f4e487b7100000000000000000000000000000000000000000000000000000000600052601160045260246000fd5b6000612fcf82612569565b91507fffffffffffffffffffffffffffffffffffffffffffffffffffffffffffffffff82141561300257613001612f95565b5b600182019050919050565b7f42616c616e636520696e73756666696369656e74000000000000000000000000600082015250565b6000613043601483612d02565b915061304e8261300d565b602082019050919050565b6000602082019050818103600083015261307281613036565b9050919050565b7f4e487b7100000000000000000000000000000000000000000000000000000000600052604160045260246000fd5b60006130b382612569565b91506130be83612569565b9250817fffffffffffffffffffffffffffffffffffffffffffffffffffffffffffffffff04831182151516156130f7576130f6612f95565b5b828202905092915050565b7f4441492062616c616e636520696e73756666696369656e740000000000000000600082015250565b6000613138601883612d02565b915061314382613102565b602082019050919050565b600060208201905081810360008301526131678161312b565b9050919050565b600061317982612569565b915061318483612569565b92508282101561319757613196612f95565b5b828203905092915050565b60006131ad82612569565b91506131b883612569565b9250827fffffffffffffffffffffffffffffffffffffffffffffffffffffffffffffffff038211156131ed576131ec612f95565b5b828201905092915050565b600060a08201905061320d60008301886125f2565b61321a60208301876125f2565b61322760408301866125f2565b61323460608301856125f2565b61324160808301846125f2565b9695505050505050565b7f4e487b7100000000000000000000000000000000000000000000000000000000600052603160045260246000fd5b600060408201905061328f6000830185612633565b61329c60208301846125f2565b9392505050565b60008115159050919050565b6132b8816132a3565b81146132c357600080fd5b50565b6000815190506132d5816132af565b92915050565b6000602082840312156132f1576132f061252e565b5b60006132ff848285016132c6565b91505092915050565b7f5472616e73616374696f6e206661696c65640000000000000000000000000000600082015250565b600061333e601283612d02565b915061334982613308565b602082019050919050565b6000602082019050818103600083015261336d81613331565b9050919050565b600061337f82612569565b9150600082141561339357613392612f95565b5b60018203905091905056fea26469706673582212202a808e06739559b0fd516cd5c608c34b71d3159cd898554fcd926f690499d3e664736f6c634300080a0033",
  "immutableReferences": {},
  "source": "pragma solidity ^0.8.10;\r\n\r\npragma experimental ABIEncoderV2;\r\n\r\n// SPDX-License-Identifier: MIT\r\n\r\nimport \"@openzeppelin/contracts/token/ERC20/ERC20.sol\";\r\n\r\ncontract Dex{\r\n    \r\n    struct Token{\r\n        bytes32 ticker;\r\n        address tokenAddress;\r\n    }\r\n\r\n\r\n    enum Side{\r\n        BUY,\r\n        SELL\r\n    }\r\n\r\n    struct Order{\r\n        uint id;\r\n        address trader;\r\n        Side side;\r\n        bytes32 ticker;\r\n        uint amount;\r\n        uint price;\r\n        uint filled;\r\n        uint date;\r\n    }\r\n\r\n    //For trade IDs\r\n    uint public nextTradeID;\r\n\r\n    //Address of Admin\r\n    address public admin;\r\n    \r\n    //List of tokens that can be traded\r\n    bytes32[] public tokenList;\r\n    \r\n    //Mapping tokens by ticker\r\n    mapping(bytes32 => Token) public tokens;\r\n\r\n    //Mapping balances of a trader for particular token\r\n    mapping(address => mapping(bytes32 => uint256)) public traderBalances;\r\n    \r\n    //Orders mapped by token and Side(BUY = 0, SELL = 1)\r\n    mapping(bytes32 => mapping(uint => Order[])) public orderBook;\r\n\r\n    //Ticker for DAI\r\n    bytes32 constant DAI = bytes32(\"DAI\");\r\n\r\n    //For Order ID\r\n    uint public nextOrderID;\r\n\r\n    constructor() public {\r\n        //Deployer is the admin\r\n        admin = msg.sender;\r\n    }\r\n\r\n    //Only admin can add a new token that can be traded on DEX\r\n    //If tokens already exist, the function reverts\r\n    function addToken(\r\n        bytes32 ticker, \r\n        address tokenAddress) \r\n        external \r\n        onlyAdmin \r\n        tokenAlreadyExist(ticker){\r\n\r\n        tokens[ticker] = Token(ticker, tokenAddress);\r\n        tokenList.push(ticker);\r\n    }\r\n\r\n    //A user can deposit a token into the DEX iff token exists\r\n    function deposit(\r\n        uint amount, \r\n        bytes32 ticker) \r\n        external \r\n        tokenExist(ticker){\r\n        \r\n        _deposit(amount, ticker);\r\n    }\r\n\r\n    function _deposit(\r\n        uint amount, \r\n        bytes32 ticker) \r\n        private{\r\n            IERC20(tokens[ticker].tokenAddress)\r\n                .transferFrom(msg.sender, address(this), amount);\r\n            traderBalances[msg.sender][ticker] += amount;\r\n        }\r\n\r\n    //A user can withdraw balances from the contract \r\n    //We will check if token exist or not using modifier tokenExist(ticker)\r\n    //We will check if trader has enough balance to withdraw\r\n    function withdraw(\r\n        uint amount, \r\n        bytes32 ticker) \r\n        external \r\n        tokenExist(ticker){\r\n\r\n        require(\r\n            traderBalances[msg.sender][ticker] >= amount, \r\n            \"Balance insufficient\"\r\n            );\r\n        _withdraw(amount, ticker);\r\n        }\r\n\r\n     function _withdraw(\r\n        uint amount, \r\n        bytes32 ticker) \r\n        private\r\n        {\r\n        //We will keep a check on reentrancy by deducting amount from balances before we transfer tokens\r\n        traderBalances[msg.sender][ticker] -= amount;\r\n        bool sent = IERC20(tokens[ticker].tokenAddress).transfer(msg.sender, amount);\r\n        require(sent, \"Transaction failed\");\r\n    }\r\n\r\n\r\n    //Checking if token is tradable on the DEX\r\n    modifier tokenExist(bytes32 ticker){\r\n        require(\r\n            tokens[ticker].tokenAddress != address(0),\r\n            \"This token doesn't exist\"\r\n            );\r\n        _;\r\n    }\r\n\r\n    //creating limit orders and checking if token exist\r\n    //Also checking if token is DAI as DAI is not tradable\r\n    \r\n    function createLimitOrder(\r\n        bytes32 ticker, \r\n        uint price, \r\n        uint amount, \r\n        Side side) \r\n        external \r\n        tokenExist(ticker)\r\n        tokenNotDAI(ticker){\r\n                  \r\n            //If Sell order => Must have enough tokens to sell\r\n            if(side == Side.SELL){\r\n                require(\r\n                    traderBalances[msg.sender][ticker] >= amount, \r\n                    \"Insufficient token balance\"\r\n                    );\r\n            }\r\n\r\n            //If buy order => Must have enough balance of DAI to buy\r\n            else{\r\n                require(\r\n                    traderBalances[msg.sender][DAI] >= amount*price, \r\n                    \"DAI balance insufficient\"\r\n                    );\r\n            }\r\n\r\n            _createLimitOrder(ticker,price,amount,side);\r\n        }\r\n\r\n    function _createLimitOrder(\r\n        bytes32 ticker, \r\n        uint price, \r\n        uint amount, \r\n        Side side) \r\n        private \r\n        {\r\n        //Finding the orders of the token on required side \r\n        Order[] storage orders = orderBook[ticker][uint(side)];\r\n\r\n        //Pushing the order into the orderBook array\r\n        orders.push(Order(\r\n            nextOrderID, \r\n            msg.sender, \r\n            side, \r\n            ticker, \r\n            amount, \r\n            price, \r\n            0, \r\n            block.timestamp\r\n            ));\r\n        //Checking so that there is no overflow problem\r\n        uint i = (orders.length > 0)? orders.length - 1 : 0;\r\n        \r\n        //Rearranging orders in the order array\r\n        while(i>0){\r\n            //If side is buy and last buy order price is less than the 2nd last order, do Nothing\r\n            if(side == Side.BUY && orders[i].price <= orders[i-1].price){\r\n                break;\r\n            }\r\n            //If side is sell and last sell order price is higher than the 2nd last order, do Nothing\r\n            if(side == Side.SELL && orders[i].price >= orders[i-1].price){\r\n                break;\r\n            }\r\n            //If side is buy, then tokens should be arranged in highest price first mode\r\n            //If side is sell, then tokens must be arranged in lowest price first mode\r\n            //Arrange till one of the above conditions is met\r\n            Order memory order = orders[i];\r\n            orders[i] = orders[i-1];\r\n            orders[i-1] = order;\r\n            i--;\r\n        }\r\n    //Incrementing order ID\r\n    nextOrderID++;\r\n    }\r\n\r\n\r\n    //Creating market orders and checking if token exist \r\n    //Also checking if token is DAI as DAI cannot be traded\r\n    function createMarketOrder(\r\n        bytes32 ticker, \r\n        uint amount, \r\n        Side side) \r\n        external \r\n        tokenExist(ticker) \r\n        tokenNotDAI(ticker){\r\n        \r\n        //If Sell order => Must have enough tokens to sell\r\n        if(side == Side.SELL){\r\n            require(\r\n                traderBalances[msg.sender][ticker] >= amount, \r\n                \"Insufficient token balance\"\r\n                );\r\n        }\r\n        _createMarketOrder(ticker, amount, side);\r\n    }\r\n\r\n    function _createMarketOrder(\r\n        bytes32 ticker, \r\n        uint amount, \r\n        Side side) \r\n        private\r\n        {\r\n        //If buy order => We need to match it to sell orders\r\n        //If sell order => We need to match it to buy orders\r\n        Order[] storage orders = orderBook[ticker][uint(side == Side.BUY\r\n                                                    ? Side.SELL\r\n                                                    :Side.BUY\r\n                                                    )];\r\n        uint i;\r\n        //Amount of token order remaining to be matched\r\n        uint remaining = amount;\r\n\r\n        //Matching orders if remaining order is not zero\r\n        while(i<orders.length && remaining>0){\r\n            //Available is the amount of tokens in the order left to be filled\r\n            uint available = orders[i].amount- orders[i].filled;\r\n            //Matched is the amount of tokens in the order that has been filled\r\n            //If remaining is more than available, we will match what is available and go to next order\r\n            //If available is more than remaining, then match remaining\r\n            uint matched = (remaining>available)\r\n                                ? available\r\n                                : remaining;\r\n            //Now remaining is low as we matched some order\r\n            remaining -= matched;\r\n            //Incrementing the filled field of order thar was used to match with market order\r\n            orders[i].filled += matched;\r\n            //Emitting trade\r\n            emit NewTrade(\r\n                nextTradeID, \r\n                orders[i].id, \r\n                ticker, \r\n                orders[i].trader, \r\n                msg.sender, matched, \r\n                orders[i].price, \r\n                block.timestamp\r\n                );\r\n\r\n            //Updating trader balances\r\n            if(side == Side.SELL){\r\n                //If side was sell => \r\n                //  then msg sender sold tokens and got DAI\r\n                //  and the order[i] trader bought tokens and paid DAI\r\n                traderBalances[msg.sender][ticker] -= matched;\r\n                traderBalances[msg.sender][DAI] += matched*orders[i].price;\r\n                traderBalances[orders[i].trader][ticker] += matched;\r\n                traderBalances[orders[i].trader][DAI] -= matched*orders[i].price;\r\n            }\r\n            if(side == Side.BUY){\r\n                //If side was buy => Check if msg sender has enough DAI\r\n                require(\r\n                    traderBalances[msg.sender][DAI] >= matched*orders[i].price, \r\n                    \"DAI balance insufficient\"\r\n                    );\r\n                //For buy => msg sender paid DAI and received tokens\r\n                traderBalances[msg.sender][ticker] += matched;\r\n                traderBalances[msg.sender][DAI] -= matched*orders[i].price;\r\n                //Order[i] trader sold tokens and received DAI\r\n                traderBalances[orders[i].trader][ticker] -= matched;\r\n                traderBalances[orders[i].trader][DAI] += matched*orders[i].price;\r\n            }\r\n            //Incrementing Trade ID and i\r\n            nextTradeID++;\r\n            i++;\r\n        }\r\n\r\n        i=0;\r\n        //Removing completely filled orders\r\n        while(i<orders.length && orders[i].filled == orders[i].amount){\r\n            for(uint j = i; j< orders.length-1; j++){\r\n                orders[j] = orders[j+1];\r\n            }\r\n            orders.pop();\r\n            i++;\r\n        }\r\n    }\r\n\r\n    //View function to get order list for particular token and side\r\n    function getOrders(\r\n        bytes32 ticker, \r\n        Side side) \r\n        external \r\n        view \r\n        returns(Order[] memory) {\r\n\r\n        return orderBook[ticker][uint(side)];\r\n    }\r\n\r\n    //View function for getting tokenlist\r\n    function getTokens() external view returns(Token[] memory){\r\n        //Copying tokenlist into a new array _tokens\r\n        Token[] memory _tokens = new Token[](tokenList.length);\r\n        for(uint i = 0; i< tokenList.length; i++){\r\n            _tokens[i] = Token(tokens[tokenList[i]].ticker, tokens[tokenList[i]].tokenAddress);\r\n        }\r\n        return _tokens;\r\n    }\r\n\r\n    function changeAdmin(address newAdmin) external onlyAdmin{\r\n        address oldAdmin = admin;\r\n        admin = newAdmin;\r\n        emit AdminChanged(oldAdmin, newAdmin, block.timestamp);\r\n    }\r\n\r\n\r\n/* <------------------Modifiers-------------------> */\r\n\r\n    //Only admin can pass this gate\r\n    modifier onlyAdmin(){\r\n        require(\r\n            msg.sender == admin, \r\n            \"only admin allowed\"\r\n            );\r\n        _;\r\n    }\r\n\r\n    //Checking if token is tradable on the dex\r\n    modifier tokenAlreadyExist(bytes32 ticker){\r\n        for(uint i=0; i<tokenList.length;i++)\r\n        {\r\n            if(ticker == tokenList[i]){\r\n                revert(\"Token already exists\");\r\n            }\r\n        }\r\n        _;\r\n    }\r\n\r\n    //If token is DAI, we cannot trade it on DEX\r\n    modifier tokenNotDAI(bytes32 ticker){\r\n        require(ticker != DAI, \"DAI not tradable\");\r\n        _;\r\n    }\r\n\r\n    /*<----------------Events----------------------> */\r\n    event NewTrade(\r\n        uint tradeID,\r\n        uint orderID,\r\n        bytes32 indexed ticker,\r\n        address indexed trader1,\r\n        address indexed trader2,\r\n        uint amount,\r\n        uint price,\r\n        uint date\r\n        );\r\n\r\n    event AdminChanged(\r\n        address oldAdmin,\r\n        address newAdmin,\r\n        uint date\r\n    );\r\n}",
  "sourcePath": "C:\\Users\\Shivam Agrawal\\Desktop\\Solidity-Development\\Orderbook-Based-DEX\\contracts\\dex.sol",
  "compiler": {
    "name": "solc",
    "version": "0.8.10+commit.fc410830.Emscripten.clang"
  },
  "schemaVersion": "3.4.3",
  "updatedAt": "2021-12-22T16:51:44.038Z",
  "devdoc": {
    "kind": "dev",
    "methods": {},
    "version": 1
  },
  "userdoc": {
    "kind": "user",
    "methods": {},
    "version": 1
  }
}